{
  "_format": "hh-sol-artifact-1",
  "contractName": "SingleProofVerifier",
  "sourceName": "contracts/SingleProofVerifier.sol",
  "abi": [
    {
      "inputs": [
        {
          "internalType": "string",
          "name": "_verifierName",
          "type": "string"
        },
        {
          "internalType": "contract VcpGenerationVerifier",
          "name": "_verifier",
          "type": "address"
        }
      ],
      "stateMutability": "nonpayable",
      "type": "constructor"
    },
    {
      "inputs": [],
      "name": "getRequirement",
      "outputs": [
        {
          "components": [
            {
              "components": [
                {
                  "internalType": "bytes9",
                  "name": "attrCode",
                  "type": "bytes9"
                },
                {
                  "internalType": "uint8",
                  "name": "operator",
                  "type": "uint8"
                },
                {
                  "internalType": "uint8",
                  "name": "value",
                  "type": "uint8"
                },
                {
                  "internalType": "bytes8[]",
                  "name": "issuerCodes",
                  "type": "bytes8[]"
                }
              ],
              "internalType": "struct Condition[]",
              "name": "conditions",
              "type": "tuple[]"
            },
            {
              "internalType": "uint8[]",
              "name": "predicates",
              "type": "uint8[]"
            }
          ],
          "internalType": "struct Requirement",
          "name": "",
          "type": "tuple"
        }
      ],
      "stateMutability": "view",
      "type": "function"
    },
    {
      "inputs": [],
      "name": "getRevocationTreeRoots",
      "outputs": [
        {
          "internalType": "bytes32[]",
          "name": "",
          "type": "bytes32[]"
        }
      ],
      "stateMutability": "view",
      "type": "function"
    },
    {
      "inputs": [
        {
          "internalType": "uint256",
          "name": "",
          "type": "uint256"
        }
      ],
      "name": "revocationTreeRoots",
      "outputs": [
        {
          "internalType": "bytes32",
          "name": "",
          "type": "bytes32"
        }
      ],
      "stateMutability": "view",
      "type": "function"
    },
    {
      "inputs": [
        {
          "components": [
            {
              "components": [
                {
                  "internalType": "bytes9",
                  "name": "attrCode",
                  "type": "bytes9"
                },
                {
                  "internalType": "uint8",
                  "name": "operator",
                  "type": "uint8"
                },
                {
                  "internalType": "uint8",
                  "name": "value",
                  "type": "uint8"
                },
                {
                  "internalType": "bytes8[]",
                  "name": "issuerCodes",
                  "type": "bytes8[]"
                }
              ],
              "internalType": "struct Condition[]",
              "name": "conditions",
              "type": "tuple[]"
            },
            {
              "internalType": "uint8[]",
              "name": "predicates",
              "type": "uint8[]"
            }
          ],
          "internalType": "struct Requirement",
          "name": "_requirement",
          "type": "tuple"
        },
        {
          "components": [
            {
              "components": [
                {
                  "internalType": "bytes8",
                  "name": "issuerCode",
                  "type": "bytes8"
                },
                {
                  "components": [
                    {
                      "internalType": "bytes32",
                      "name": "x",
                      "type": "bytes32"
                    },
                    {
                      "internalType": "bytes32",
                      "name": "y",
                      "type": "bytes32"
                    }
                  ],
                  "internalType": "struct Point",
                  "name": "publicKey",
                  "type": "tuple"
                }
              ],
              "internalType": "struct Issuer[]",
              "name": "publicKeys",
              "type": "tuple[]"
            }
          ],
          "internalType": "struct PublicKeys",
          "name": "_publicKeys",
          "type": "tuple"
        },
        {
          "internalType": "bytes32[]",
          "name": "_revocationTreeRoots",
          "type": "bytes32[]"
        }
      ],
      "name": "updateRequirement",
      "outputs": [],
      "stateMutability": "nonpayable",
      "type": "function"
    },
    {
      "inputs": [],
      "name": "verifier",
      "outputs": [
        {
          "internalType": "contract VcpGenerationVerifier",
          "name": "",
          "type": "address"
        }
      ],
      "stateMutability": "view",
      "type": "function"
    },
    {
      "inputs": [],
      "name": "verifierName",
      "outputs": [
        {
          "internalType": "string",
          "name": "",
          "type": "string"
        }
      ],
      "stateMutability": "view",
      "type": "function"
    },
    {
      "inputs": [
        {
          "internalType": "bytes",
          "name": "proof",
          "type": "bytes"
        },
        {
          "internalType": "uint8",
          "name": "provingTime",
          "type": "uint8"
        }
      ],
      "name": "verify",
      "outputs": [
        {
          "internalType": "bool",
          "name": "",
          "type": "bool"
        }
      ],
      "stateMutability": "view",
      "type": "function"
    }
  ],
  "bytecode": "0x60806040523480156200001157600080fd5b50604051620016e4380380620016e483398101604081905262000034916200009d565b600062000042838262000216565b50600580546001600160a01b0319166001600160a01b039290921691909117905550620002e2565b634e487b7160e01b600052604160045260246000fd5b80516001600160a01b03811681146200009857600080fd5b919050565b60008060408385031215620000b157600080fd5b82516001600160401b0380821115620000c957600080fd5b818501915085601f830112620000de57600080fd5b815181811115620000f357620000f36200006a565b604051601f8201601f19908116603f011681019083821181831017156200011e576200011e6200006a565b816040528281526020935088848487010111156200013b57600080fd5b600091505b828210156200015f578482018401518183018501529083019062000140565b60008484830101528096505050506200017a81860162000080565b925050509250929050565b600181811c908216806200019a57607f821691505b602082108103620001bb57634e487b7160e01b600052602260045260246000fd5b50919050565b601f82111562000211576000816000526020600020601f850160051c81016020861015620001ec5750805b601f850160051c820191505b818110156200020d57828155600101620001f8565b5050505b505050565b81516001600160401b038111156200023257620002326200006a565b6200024a8162000243845462000185565b84620001c1565b602080601f831160018114620002825760008415620002695750858301515b600019600386901b1c1916600185901b1785556200020d565b600085815260208120601f198616915b82811015620002b35788860151825594840194600190910190840162000292565b5085821015620002d25787850151600019600388901b60f8161c191681555b5050505050600190811b01905550565b6113f280620002f26000396000f3fe608060405234801561001057600080fd5b506004361061007d5760003560e01c80633b9d5f8a1161005b5780633b9d5f8a146100e0578063a2161eba14610103578063f2d9281e14610118578063fdc98f7e1461012d57600080fd5b806316f94cb3146100825780631786f8d7146100975780632b7ac3f3146100b5575b600080fd5b6100956100903660046108ea565b61014e565b005b61009f610181565b6040516100ac91906109ef565b60405180910390f35b6005546100c8906001600160a01b031681565b6040516001600160a01b0390911681526020016100ac565b6100f36100ee366004610a1b565b6101d9565b60405190151581526020016100ac565b61010b61062e565b6040516100ac9190610a9e565b6101206106bc565b6040516100ac9190610b21565b61014061013b366004610c17565b610869565b6040519081526020016100ac565b83600161015b82826110d4565b50839050600361016b82826111dc565b5061017a90506004838361088a565b5050505050565b606060048054806020026020016040519081016040528092919081815260200182805480156101cf57602002820191906000526020600020905b8154815260200190600101908083116101bb575b5050505050905090565b60408051600a808252610160820190925260009182919060208201610140803683370190505090508260405160200161021291906112c9565b60405160208183030381529060405261022a906112e1565b8160008151811061023d5761023d611308565b602002602001018181525050600460008154811061025d5761025d611308565b90600052602060002001548160018151811061027b5761027b611308565b60209081029190910101526002805460009061029957610299611308565b90600052602060002090602091828204019190069054906101000a900460ff166040516020016102c991906112c9565b6040516020818303038152906040526102e1906112e1565b816002815181106102f4576102f4611308565b60209081029190910101526001805460009061031257610312611308565b906000526020600020906002020160000160009054906101000a900460b81b6001600160b81b0319168160038151811061034e5761034e611308565b60209081029190910101526001805460009061036c5761036c611308565b906000526020600020906002020160010160008154811061038f5761038f611308565b90600052602060002090600491828204019190066008029054906101000a900460c01b6001600160c01b031916816004815181106103cf576103cf611308565b6020908102919091010152600180546000906103ed576103ed611308565b906000526020600020906002020160000160099054906101000a900460ff1660405160200161041c91906112c9565b604051602081830303815290604052610434906112e1565b8160058151811061044757610447611308565b60209081029190910101526001805460009061046557610465611308565b9060005260206000209060020201600001600a9054906101000a900460ff1660405160200161049491906112c9565b6040516020818303038152906040526104ac906112e1565b816006815181106104bf576104bf611308565b6020908102919091010152600380546000906104dd576104dd611308565b906000526020600020906003020160000160009054906101000a900460c01b6001600160c01b0319168160078151811061051957610519611308565b60209081029190910101526003805460009061053757610537611308565b9060005260206000209060030201600101600001548160088151811061055f5761055f611308565b60209081029190910101526003805460009061057d5761057d611308565b906000526020600020906003020160010160010154816009815181106105a5576105a5611308565b6020908102919091010152600554604051633a94343960e21b81526001600160a01b039091169063ea50d0e4906105e49088908890869060040161131e565b602060405180830381865afa158015610601573d6000803e3d6000fd5b505050506040513d601f19601f820116820180604052508101906106259190611366565b95945050505050565b6000805461063b90611388565b80601f016020809104026020016040519081016040528092919081815260200182805461066790611388565b80156106b45780601f10610689576101008083540402835291602001916106b4565b820191906000526020600020905b81548152906001019060200180831161069757829003601f168201915b505050505081565b604080518082019091526060808252602082015260408051600180546060602082028401810185529383018181529293919284929091849160009085015b828210156107e6576000848152602090819020604080516080810182526002860290920180546001600160b81b031960b882901b16845260ff69010000000000000000008204811685870152600160501b9091041683830152600181018054835181870281018701909452808452939491936060860193928301828280156107ce57602002820191906000526020600020906000905b82829054906101000a900460c01b6001600160c01b031916815260200190600801906020826007010492830192600103820291508084116107905790505b505050505081525050815260200190600101906106fa565b5050505081526020016001820180548060200260200160405190810160405280929190818152602001828054801561085b57602002820191906000526020600020906000905b825461010083900a900460ff1681526020600192830181810494850194909303909202910180841161082c5790505b505050505081525050905090565b6004818154811061087957600080fd5b600091825260209091200154905081565b8280548282559060005260206000209081019282156108c5579160200282015b828111156108c55782358255916020019190600101906108aa565b506108d19291506108d5565b5090565b5b808211156108d157600081556001016108d6565b6000806000806060858703121561090057600080fd5b843567ffffffffffffffff8082111561091857600080fd5b908601906040828903121561092c57600080fd5b9094506020860135908082111561094257600080fd5b908601906020828903121561095657600080fd5b9093506040860135908082111561096c57600080fd5b818701915087601f83011261098057600080fd5b81358181111561098f57600080fd5b8860208260051b85010111156109a457600080fd5b95989497505060200194505050565b60008151808452602080850194506020840160005b838110156109e4578151875295820195908201906001016109c8565b509495945050505050565b602081526000610a0260208301846109b3565b9392505050565b60ff81168114610a1857600080fd5b50565b600080600060408486031215610a3057600080fd5b833567ffffffffffffffff80821115610a4857600080fd5b818601915086601f830112610a5c57600080fd5b813581811115610a6b57600080fd5b876020828501011115610a7d57600080fd5b60209283019550935050840135610a9381610a09565b809150509250925092565b60006020808352835180602085015260005b81811015610acc57858101830151858201604001528201610ab0565b506000604082860101526040601f19601f8301168501019250505092915050565b60008151808452602080850194506020840160005b838110156109e457815160ff1687529582019590820190600101610b02565b6000602080835260608084018551604080858801528282518085526080945060808901915060808160051b8a010187850194506000805b83811015610beb578b8303607f19018552865180516001600160b81b03191684528a81015160ff9081168c8601528782015116878501528901518984018990528051898501819052908b0190839060a08601905b80831015610bd65783516001600160c01b0319168252928d019260019290920191908d0190610bac565b50988c0198968c019694505050600101610b58565b5050968a0151898803601f190160408b015296610c088189610aed565b9b9a5050505050505050505050565b600060208284031215610c2957600080fd5b5035919050565b6000808335601e19843603018112610c4757600080fd5b83018035915067ffffffffffffffff821115610c6257600080fd5b6020019150600581901b3603821315610c7a57600080fd5b9250929050565b60008235607e19833603018112610c9757600080fd5b9190910192915050565b634e487b7160e01b600052604160045260246000fd5b600181901b6001600160ff1b0382168214610ce257634e487b7160e01b600052601160045260246000fd5b919050565b60038082029081048214610ce257634e487b7160e01b600052601160045260246000fd5b5b81811015610d205760008155600101610d0c565b5050565b8054600082558015610d2057816000526020600020610d4b6003830160021c820182610d0b565b505050565b600160401b821115610d6457610d64610ca1565b805482825580831015610d4b578160005260206000206003840160021c810160188560031b168015610dad57610dad81600019840180546000198360200360031b1c1681555050565b5061017a6003840160021c830182610d0b565b60008135610dcd81610a09565b92915050565b600081356001600160c01b031981168114610dcd57600080fd5b67ffffffffffffffff831115610e0557610e05610ca1565b610e0f8382610d50565b60008181526020902082908460021c60005b81811015610e87576000805b6004811015610e7a57610e69610e4b610e4588610dd3565b60c01c90565b67ffffffffffffffff908116600684901b90811b91901b1984161790565b602096909601959150600101610e2d565b5083820155600101610e21565b506003198616808703818814610ec9576000805b82811015610ec357610eb2610e4b610e4589610dd3565b602097909701969150600101610e9b565b50848401555b5050505050505050565b81356001600160b81b031981168114610eeb57600080fd5b8060b81c905081548168ffffffffffffffffff1982161783556020840135610f1281610a09565b69ff0000000000000000008160481b169050808369ffffffffffffffffffff198416171784556040850135610f4681610a09565b60ff60501b8160501b16846affffffffffffffffffffff19851617831717855550505050610f776060830183610c30565b610f85818360018601610ded565b50505050565b600160401b821115610f9f57610f9f610ca1565b805482825580831015610d4b57816000526020600020601f840160051c8101601f85168015610fe557610fe581600019840180546000198360200360031b1c1681555050565b5061017a601f840160051c830182610d0b565b67ffffffffffffffff83111561101057611010610ca1565b61101a8382610f8b565b60008181526020902082908460051c60005b81811015611084576000805b60208082106110475750611077565b61106a61105388610dc0565b60ff908116600385901b90811b91901b1985161790565b9601959150600101611038565b508382015560010161102c565b50601f198616808703818814610ec9576000805b82811015610ec3576110c36110ac88610dc0565b60ff908116600384901b90811b91901b1984161790565b602097909701969150600101611098565b6110de8283610c30565b600160401b8111156110f2576110f2610ca1565b82548184558082101561114a5761110881610cb7565b61111183610cb7565b6000868152602081209283019291909101905b828210156111465780825561113b60018301610d24565b600282019150611124565b5050505b5060008381526020812083915b838110156111885761117261116c8487610c81565b83610ed3565b6020929092019160029190910190600101611157565b505050505061119a6020830183610c30565b610f85818360018601610ff8565b6111b182610dd3565b60c01c67ffffffffffffffff1982541617815560208201356001820155604082013560028201555050565b8135601e198336030181126111f057600080fd5b8201803567ffffffffffffffff81111561120957600080fd5b6020820191506060808202360383131561122257600080fd5b600160401b82111561123657611236610ca1565b83548285558083101561128e5761124c81610ce7565b61125584610ce7565b6000878152602081209283019291909101905b8282101561128a57808255806001830155806002830155600382019150611268565b5050505b5060008481526020902060005b838110156112c0576112ad85836111a8565b938201936003919091019060010161129b565b50505050505050565b60f89190911b6001600160f81b031916815260010190565b80516020808301519190811015611302576000198160200360031b1b821691505b50919050565b634e487b7160e01b600052603260045260246000fd5b60408152826040820152828460608301376000606084830101526000601f19601f8501168201606083820301602084015261135c60608201856109b3565b9695505050505050565b60006020828403121561137857600080fd5b81518015158114610a0257600080fd5b600181811c9082168061139c57607f821691505b60208210810361130257634e487b7160e01b600052602260045260246000fdfea26469706673582212205674ddb271988b3246b74c0a9dac4162990e36fb919f0684f99c7710b7ce9cf864736f6c63430008180033",
  "linkReferences": {},
  "deployedLinkReferences": {}
}